:020000040800F2
:1000000000280020CD0A0008710A0008770A0008BD
:100010007D0A0008830A0008890A00080000000021
:100020000000000000000000000000008F0A00082F
:100030009B0A000800000000A70A0008B30A000895
:10004000150B0008150B0008150B0008150B000810
:10005000150B0008150B0008150B0008150B000800
:10006000150B0008150B0008150B0008150B0008F0
:10007000150B0008150B0008150B0008150B0008E0
:10008000150B0008150B0008150B0008150B0008D0
:10009000150B0008150B0008150B0008150B0008C0
:1000A000150B0008150B0008150B0008150B0008B0
:1000B000150B0008150B000800000000150B0008C8
:1000C000150B00080000000000000000150B0008E0
:1000D00000000000150B0008150B000800000000D0
:1000E000150B0008150B0008150B00080000000098
:1000F0000000000000000000000000000000000000
:0C01000000000000000000005FF808F1A3
:10010C0010B5054C237833B9044B13B10448AFF345
:10011C0000800123237010BD0C00002000000000A3
:10012C002019000808B5034B1BB103490348AFF372
:10013C00008008BD000000001000002020190008FD
:10014C0080B582B000AF00F0E1FC00F025F800F0C3
:10015C005FF800237B60642000F0FCFB0D4B012258
:10016C001A607B680B2B01DD00237B60094B1B683D
:10017C00012B08D1786800F07FF87B6801337B6035
:10018C00642000F0E7FB00F0F9FB0A2000F020FDF2
:10019C00E7E700BF2800002080B590B000AF07F162
:1001AC00180328220021184601F0ACFB3B1D00224D
:1001BC001A605A609A60DA601A610223BB610123EB
:1001CC00BB621023FB6200237B6307F11803184604
:1001DC0000F098FF0346002B01D000F0B5FB0F2375
:1001EC007B600023BB600023FB6000233B6100238A
:1001FC007B613B1D0021184601F004FA0346002BDD
:10020C0001D000F0A1FB00BF4037BD4680BD00000F
:10021C0080B586B000AF07F1080300221A605A605F
:10022C009A60DA60124B9B69114A43F004039361A4
:10023C000F4B9B6903F004037B607B6800224FF635
:10024C00F0710C4800F046FF4FF6F073BB600123D1
:10025C00FB6000233B6102237B6107F10803194615
:10026C00044800F0BDFD00BF1837BD4680BD00BF7F
:10027C00001002400008014080B582B000AF7860E9
:10028C007B680B2B00F25A8301A252F823F000BFBB
:10029C00CD02000857030008E10300086B040008B6
:1002AC00F50400087F0500080D06000897060008F5
:1002BC0021070008AB07000835080008BF08000834
:1002CC0001221021CD4800F005FF00222021CB484F
:1002DC0000F000FF00224021C84800F0FBFE002285
:1002EC008021C64800F0F6FE00224FF48071C3480E
:1002FC0000F0F0FE00224FF40071C04800F0EAFE5E
:10030C0000224FF48061BD4800F0E4FE00224FF45F
:10031C000061BA4800F0DEFE00224FF48051B7486D
:10032C0000F0D8FE00224FF40051B44800F0D2FE89
:10033C0000224FF48041B14800F0CCFE00224FF473
:10034C000041AE4800F0C6FEF8E200221021AB4896
:10035C0000F0C0FE01222021A84800F0BBFE0022C4
:10036C004021A64800F0B6FE00228021A34800F0F0
:10037C00B1FE00224FF48071A04800F0ABFE0022C9
:10038C004FF400719D4800F0A5FE00224FF48061EF
:10039C009A4800F09FFE00224FF40061974800F04D
:1003AC0099FE00224FF48051944800F093FE0022F5
:1003BC004FF40051914800F08DFE00224FF4804123
:1003CC008E4800F087FE00224FF400418B4800F06D
:1003DC0081FEB3E200221021884800F07BFE00224F
:1003EC002021864800F076FE01224021834800F04F
:1003FC0071FE00228021814800F06CFE00224FF437
:10040C0080717E4800F066FE00224FF400717B483C
:10041C0000F060FE00224FF48061784800F05AFE34
:10042C0000224FF40061754800F054FE00224FF496
:10043C008051724800F04EFE00224FF400516F487C
:10044C0000F048FE00224FF480416C4800F042FE60
:10045C0000224FF40041694800F03CFE6EE200229D
:10046C001021664800F036FE00222021634800F07F
:10047C0031FE00224021614800F02CFE0122802137
:10048C005E4800F027FE00224FF480715B4800F0BC
:10049C0021FE00224FF40071584800F01BFE002290
:1004AC004FF48061554800F015FE00224FF40061B6
:1004BC00524800F00FFE00224FF480514F4800F0DC
:1004CC0009FE00224FF400514C4800F003FE0022BC
:1004DC004FF48041494800F0FDFD00224FF40041EB
:1004EC00464800F0F7FD29E200221021434800F0B5
:1004FC00F1FD00222021414800F0ECFD00224021BA
:10050C003E4800F0E7FD002280213C4800F0E2FD6F
:10051C0001224FF48071394800F0DCFD00224FF4C9
:10052C000071364800F0D6FD00224FF4806133484C
:10053C0000F0D0FD00224FF40061304800F0CAFDFD
:10054C0000224FF480512D4800F0C4FD00224FF4DE
:10055C0000512A4800F0BEFD00224FF4804127488C
:10056C0000F0B8FD00224FF40041244800F0B2FD29
:10057C00E4E100221021214800F0ACFD00222021F2
:10058C001E4800F0A7FD002240211C4800F0A2FDEF
:10059C0000228021194800F09DFD00224FF480714B
:1005AC00164800F097FD01224FF40071134800F03B
:1005BC0091FD00224FF48061104800F08BFD002269
:1005CC004FF400610D4800F085FD00224FF480517E
:1005DC000A4800F07FFD00224FF40051074800F05C
:1005EC0079FD00224FF48041044800F073FD002295
:1005FC004FF40041014800F06DFD9FE100080140FF
:10060C0000221021CF4800F065FD00222021CD48AA
:10061C0000F060FD00224021CA4800F05BFD002282
:10062C008021C84800F056FD00224FF48071C54867
:10063C0000F050FD00224FF40071C24800F04AFD5A
:10064C0001224FF48061BF4800F044FD00224FF4BA
:10065C000061BC4800F03EFD00224FF48051B948C7
:10066C0000F038FD00224FF40051B64800F032FD86
:10067C0000224FF48041B34800F02CFD00224FF4CF
:10068C000041B04800F026FD58E100221021AD4891
:10069C0000F020FD00222021AA4800F01BFD0022C2
:1006AC004021A84800F016FD00228021A54800F04A
:1006BC0011FD00224FF48071A24800F00BFD0022C6
:1006CC004FF400719F4800F005FD00224FF480614B
:1006DC009C4800F0FFFC01224FF40061994800F0A7
:1006EC00F9FC00224FF48051964800F0F3FC0022F4
:1006FC004FF40051934800F0EDFC00224FF4804180
:10070C00904800F0E7FC00224FF400418D4800F0C7
:10071C00E1FC13E1002210218A4800F0DBFC0022EE
:10072C002021884800F0D6FC00224021854800F0AA
:10073C00D1FC00228021834800F0CCFC00224FF435
:10074C008071804800F0C6FC00224FF400717D4897
:10075C0000F0C0FC00224FF480617A4800F0BAFC33
:10076C0000224FF40061774800F0B4FC01224FF4F2
:10077C008051744800F0AEFC00224FF400517148D7
:10078C0000F0A8FC00224FF480416E4800F0A2FC5F
:10079C0000224FF400416B4800F09CFCCEE000229C
:1007AC001021684800F096FC00222021654800F0DA
:1007BC0091FC00224021634800F08CFC0022802137
:1007CC00604800F087FC00224FF480715D4800F017
:1007DC0081FC00224FF400715A4800F07BFC00228F
:1007EC004FF48061574800F075FC00224FF4006113
:1007FC00544800F06FFC00224FF48051514800F037
:10080C0069FC01224FF400514E4800F063FC0022B9
:10081C004FF480414B4800F05DFC00224FF4004146
:10082C00484800F057FC89E000221021454800F0B0
:10083C0051FC00222021434800F04CFC00224021B6
:10084C00404800F047FC002280213E4800F042FC6A
:10085C0000224FF480713B4800F03CFC00224FF426
:10086C000071384800F036FC00224FF480613548A6
:10087C0000F030FC00224FF40061324800F02AFCFA
:10088C0000224FF480512F4800F024FC00224FF43A
:10089C0000512C4800F01EFC01224FF480412948E5
:1008AC0000F018FC00224FF40041264800F012FC26
:1008BC0044E000221021234800F00CFC00222021EF
:1008CC00204800F007FC002240211E4800F002FCEA
:1008DC00002280211B4800F0FDFB00224FF48071A8
:1008EC00184800F0F7FB00224FF40071154800F097
:1008FC00F1FB00224FF48061124800F0EBFB002268
:10090C004FF400610F4800F0E5FB00224FF48051DA
:10091C000C4800F0DFFB00224FF40051094800F0B6
:10092C00D9FB00224FF48041064800F0D3FB012292
:10093C004FF40041034800F0CDFB00BF00BF083767
:10094C00BD4680BD0008014080B400AF72B600BF48
:10095C00FEE7000080B483B000AF7860054B002246
:10096C001A60054A7B68136000BF0C37BD4680BC1B
:10097C00704700BF280000203400002080B400AF76
:10098C00194B1B68002B0BDD174B1B68013B164AE0
:10099C001360154B1B68002B02DC144B01221A60F0
:1009AC00134B1B68002B0BDD114B1B68013B104AD2
:1009BC0013600F4B1B68002B02DC0E4B01221A60DC
:1009CC000D4B1B68002B0BDD0B4B1B68013B0A4AC4
:1009DC001360094B1B68002B02DC084B01221A60C8
:1009EC0000BFBD4680BC70473400002028000020AA
:1009FC00380000202C0000203C000020300000209B
:100A0C0080B485B000AF154B9B69144A43F00103C9
:100A1C009361124B9B6903F00103BB60BB680F4BE6
:100A2C00DB690E4A43F08053D3610C4BDB6903F056
:100A3C0080537B607B680A4B5B68FB60FB6823F030
:100A4C00E063FB60FB6843F08063FB60044AFB6877
:100A5C00536000BF1437BD4680BC70470010024085
:100A6C000000014080B400AFFEE780B400AFFEE7A9
:100A7C0080B400AFFEE780B400AFFEE780B400AFF7
:100A8C00FEE780B400AF00BFBD4680BC704780B4A9
:100A9C0000AF00BFBD4680BC704780B400AF00BF44
:100AAC00BD4680BC704780B500AF00F075F800BF44
:100ABC0080BD80B400AF00BFBD4680BC7047000055
:100ACC00FFF7F7FF0B480C490C4A002302E0D458FF
:100ADC00C4500433C4188C42F9D3094A094C00237E
:100AEC0001E013600432A242FBD300F0E7FEFFF7F3
:100AFC0027FB7047000000200C0000206419000840
:100B0C000C00002044000020FEE7000080B500AF80
:100B1C00084B1B68074A43F010031360032000F0D6
:100B2C002BF90F2000F008F8FFF76AFF0023184696
:100B3C0080BD00BF0020024080B582B000AF78605D
:100B4C00124B1A68124B1B7819464FF47A73B3FB8D
:100B5C00F1F3B2FBF3F3184600F035F90346002B22
:100B6C0001D001230EE07B680F2B0AD80022796894
:100B7C004FF0FF3000F00BF9064A7B68136000233E
:100B8C0000E0012318460837BD4680BD0000002058
:100B9C00080000200400002080B400AF054B1B7837
:100BAC001A46054B1B681344034A136000BFBD462D
:100BBC0080BC7047080000204000002080B400AFCB
:100BCC00024B1B681846BD4680BC70474000002095
:100BDC0080B584B000AF7860FFF7F0FFB8607B6839
:100BEC00FB60FB68B3F1FF3F05D00A4B1B781A463C
:100BFC00FB681344FB6000BFFFF7E0FF0246BB68D5
:100C0C00D31AFA689A42F7D800BF00BF1037BD4616
:100C1C0080BD00BF0800002080B485B000AF7860B4
:100C2C007B6803F00703FB600C4BDB68BB60BA68A6
:100C3C004FF6FF031340BB60FB681A02BB681343FB
:100C4C0043F0BF6343F40033BB60044ABB68D3601A
:100C5C0000BF1437BD4680BC704700BF00ED00E0FC
:100C6C0080B400AF044BDB681B0A03F00703184683
:100C7C00BD4680BC704700BF00ED00E080B483B07F
:100C8C0000AF03463960FB7197F90730002B0ADB84
:100C9C003B68DAB20C4997F907301201D2B20B4417
:100CAC0083F800230AE03B68DAB20849FB7903F0C9
:100CBC000F03043B1201D2B20B441A7600BF0C375F
:100CCC00BD4680BC704700BF00E100E000ED00E0D5
:100CDC0080B489B000AFF860B9607A60FB6803F04B
:100CEC000703FB61FB69C3F10703042B28BF042333
:100CFC00BB61FB690433062B02D9FB69033B00E0A3
:100D0C0000237B614FF0FF32BB6902FA03F3DA4335
:100D1C00BB681A407B699A404FF0FF317B6901FA3E
:100D2C0003F3D9437B680B40134318462437BD4665
:100D3C0080BC704780B582B000AF78607B68013BA7
:100D4C00B3F1807F01D301230FE00A4A7B68013B9A
:100D5C0053600F214FF0FF30FFF790FF054B00223F
:100D6C009A60044B07221A60002318460837BD46C8
:100D7C0080BD00BF10E000E080B582B000AF7860AD
:100D8C007868FFF749FF00BF0837BD4680BD80B5C6
:100D9C0086B000AF0346B9607A60FB7300237B61B9
:100DAC00FFF75EFF78617A68B9687869FFF790FFA2
:100DBC00024697F90F3011461846FFF75FFF00BF48
:100DCC001837BD4680BD80B582B000AF78607868BA
:100DDC00FFF7B0FF034618460837BD4680BD00003C
:100DEC0080B48BB000AF7860396000237B62002345
:100DFC003B6248E101227B6A02FA03F3FB613B6828
:100E0C001B68FA691340BB61BA69FB699A4240F0EE
:100E1C0037813B685B68A34A93425ED0A14A9342F8
:100E2C0075D8A14A934258D09F4A93426FD89F4A93
:100E3C00934252D09D4A934269D89D4A93424CD0DA
:100E4C009B4A934263D89B4A934246D0994A934219
:100E5C005DD8122B2AD8122B59D801A252F823F0A4
:100E6C00E70E0008C10E0008D30E0008150F00088D
:100E7C001B0F00081B0F00081B0F00081B0F00089E
:100E8C001B0F00081B0F00081B0F00081B0F00088E
:100E9C001B0F00081B0F00081B0F00081B0F00087E
:100EAC001B0F0008C90E0008DD0E0008824A934291
:100EBC0013D02CE03B68DB683B6229E03B68DB68C5
:100ECC0004333B6224E03B68DB6808333B621FE081
:100EDC003B68DB680C333B621AE03B689B68002B79
:100EEC0002D104233B6213E03B689B68012B05D1C4
:100EFC0008233B627B68FA691A6109E008233B62AC
:100F0C007B68FA695A6103E000233B6200E000BF92
:100F1C00BB69FF2B01D87B6801E07B6804337B61E4
:100F2C00BB69FF2B02D87B6A9B0002E07B6A083B03
:100F3C009B003B617B691A680F213B6901FA03F343
:100F4C00DB431A40396A3B6901FA03F31A437B69A4
:100F5C001A603B685B6803F08053002B00F09080B4
:100F6C00564B9B69554A43F001039361534B9B6964
:100F7C0003F00103BB60BB68514A7B6A9B080233D8
:100F8C0052F82330FB607B6A03F003039B000F22B3
:100F9C0002FA03F3DB43FA681340FB607B68494AAF
:100FAC0093420DD07B68484A934207D07B68474AEE
:100FBC00934201D1022304E0032302E0012300E069
:100FCC0000237A6A02F0030292009340FA681343FA
:100FDC00FB603B497B6A9B080233FA6841F823208B
:100FEC003B685B6803F48013002B06D0384B9A687F
:100FFC003749BB6913438B6006E0354B9A68BB6974
:10100C00DB43334913408B603B685B6803F400138C
:10101C00002B06D02E4BDA682D49BB691343CB60ED
:10102C0006E02B4BDA68BB69DB4329491340CB60E4
:10103C003B685B6803F40033002B06D0244B5A68E2
:10104C002349BB6913434B6006E0214B5A68BB69CB
:10105C00DB431F4913404B603B685B6803F48033F0
:10106C00002B06D01A4B1A681949BB6913430B6045
:10107C0006E0174B1A68BB69DB43154913400B603C
:10108C007B6A01337B623B681A687B6A22FA03F342
:10109C00002B7FF4AFAE00BF00BF2C37BD4680BC29
:1010AC00704700BF00003210000031100000221009
:1010BC00000021100000121000001110001002405E
:1010CC000000014000080140000C014000100140EC
:1010DC000004014080B483B000AF78600B467B8085
:1010EC0013467B707B78002B03D07A887B681A615F
:1010FC0003E07B881A047B681A6100BF0C37BD467D
:10110C0080BC704780B586B000AF78607B68002BE0
:10111C0001D101236CE27B681B6803F00103002BF7
:10112C0000F08780924B5B6803F00C03042B0CD00F
:10113C008F4B5B6803F00C03082B12D18C4B5B6854
:10114C0003F48033B3F5803F0BD1894B1B6803F458
:10115C000033002B6CD07B685B68002B68D10123BB
:10116C0046E27B685B68B3F5803F06D1804B1B6819
:10117C007F4A43F4803313602EE07B685B68002B5E
:10118C000CD17B4B1B687A4A23F480331360784B69
:10119C001B68774A23F4802313601DE07B685B682F
:1011AC00B3F5A02F0CD1724B1B68714A43F480230A
:1011BC0013606F4B1B686E4A43F4803313600BE073
:1011CC006B4B1B686A4A23F480331360684B1B68B3
:1011DC00674A23F4802313607B685B68002B13D071
:1011EC00FFF7ECFC386108E0FFF7E8FC02463B69CE
:1011FC00D31A642B01D90323FAE15D4B1B6803F46A
:10120C000033002BF0D014E0FFF7D8FC386108E075
:10121C00FFF7D4FC02463B69D31A642B01D9032394
:10122C00E6E1534B1B6803F40033002BF0D100E0D4
:10123C0000BF7B681B6803F00203002B63D04C4B90
:10124C005B6803F00C03002B0BD0494B5B6803F07D
:10125C000C03082B1CD1464B5B6803F48033002B2A
:10126C0016D1434B1B6803F00203002B05D07B689F
:10127C001B69012B01D00123BAE13D4B1B6823F004
:10128C00F8027B685B69DB00394913430B603AE079
:10129C007B681B69002B20D0364B01221A60FFF7AC
:1012AC008DFC386108E0FFF789FC02463B69D31AD4
:1012BC00022B01D903239BE12D4B1B6803F0020386
:1012CC00002BF0D02A4B1B6823F0F8027B685B697B
:1012DC00DB00274913430B6015E0264B00221A60F4
:1012EC00FFF76CFC386108E0FFF768FC02463B69CD
:1012FC00D31A022B01D903237AE11D4B1B6803F08F
:10130C000203002BF0D17B681B6803F00803002B51
:10131C003AD07B689B69002B19D0174B01221A60BD
:10132C00FFF74CFC386108E0FFF748FC02463B69CC
:10133C00D31A022B01D903235AE10D4B5B6A03F03C
:10134C000203002BF0D0012000F09AFA1CE00A4BAB
:10135C0000221A60FFF732FC38610FE0FFF72EFC19
:10136C0002463B69D31A022B08D9032340E100BF84
:10137C000010024000004242800442429E4B5B6AD5
:10138C0003F00203002BE9D17B681B6803F0040314
:10139C00002B00F0A6800023FB75974BDB6903F054
:1013AC008053002B0DD1944BDB69934A43F080534F
:1013BC00D361914BDB6903F08053BB60BB680123A5
:1013CC00FB758E4B1B6803F48073002B18D18B4B71
:1013DC001B688A4A43F480731360FFF7EFFB386194
:1013EC0008E0FFF7EBFB02463B69D31A642B01D9EB
:1013FC000323FDE0814B1B6803F48073002BF0D0BA
:10140C007B68DB68012B06D17B4B1B6A7A4A43F065
:10141C00010313622DE07B68DB68002B0CD1764B4B
:10142C001B6A754A23F001031362734B1B6A724AE1
:10143C0023F0040313621CE07B68DB68052B0CD1E2
:10144C006D4B1B6A6C4A43F0040313626A4B1B6AB4
:10145C00694A43F0010313620BE0674B1B6A664A4F
:10146C0023F001031362644B1B6A634A23F00403E9
:10147C0013627B68DB68002B15D0FFF79FFB38618C
:10148C000AE0FFF79BFB02463B69D31A41F2883214
:10149C00934201D90323ABE0574B1B6A03F00203C1
:1014AC00002BEED014E0FFF789FB38610AE0FFF760
:1014BC0085FB02463B69D31A41F28832934201D92B
:1014CC00032395E04C4B1B6A03F00203002BEED177
:1014DC00FB7D012B05D1484BDB69474A23F0805338
:1014EC00D3617B68DB69002B00F08180424B5B6829
:1014FC0003F00C03082B61D07B68DB69022B46D10F
:10150C003F4B00221A60FFF759FB386108E0FFF7E8
:10151C0055FB02463B69D31A022B01D9032367E022
:10152C00354B1B6803F00073002BF0D17B681B6AF2
:10153C00B3F5803F08D1304B5B6823F400327B68F5
:10154C009B682D4913434B602B4B5B6823F474123F
:10155C007B68196A7B685B6A0B43274913434B60B2
:10156C00274B01221A60FFF729FB386108E0FFF7CF
:10157C0025FB02463B69D31A022B01D9032337E022
:10158C001D4B1B6803F00073002BF0D02FE01C4B9D
:10159C0000221A60FFF712FB386108E0FFF70EFB20
:1015AC0002463B69D31A022B01D9032320E0124BCC
:1015BC001B6803F00073002BF0D118E07B68DB692B
:1015CC00012B01D1012313E00B4B5B68FB60FB6823
:1015DC0003F480327B681B6A9A4206D1FB6803F4E1
:1015EC0070127B685B6A9A4201D0012300E00023F1
:1015FC0018461837BD4680BD0010024000700040F0
:10160C006000424280B584B000AF786039607B687E
:10161C00002B01D10123D0E06A4B1B6803F00703B8
:10162C003A689A4210D9674B1B6823F00702654948
:10163C003B6813430B60634B1B6803F007033A686A
:10164C009A4201D00123B8E07B681B6803F00203C7
:10165C00002B20D07B681B6803F00403002B05D003
:10166C00594B5B68584A43F4E06353607B681B68D2
:10167C0003F00803002B05D0534B5B68524A43F42C
:10168C0060535360504B5B6823F0F0027B689B689F
:10169C004D4913434B607B681B6803F00103002B1F
:1016AC0040D07B685B68012B07D1474B1B6803F468
:1016BC000033002B15D101237FE07B685B68022B84
:1016CC0007D1414B1B6803F00073002B09D1012398
:1016DC0073E03D4B1B6803F00203002B01D1012387
:1016EC006BE0394B5B6823F003027B685B6836491F
:1016FC0013434B60FFF762FAF8600AE0FFF75EFAFB
:10170C000246FB68D31A41F28832934201D9032373
:10171C0053E02D4B5B6803F00C027B685B689B000D
:10172C009A42EBD1274B1B6803F007033A689A42A5
:10173C0010D2244B1B6823F0070222493B68134349
:10174C000B60204B1B6803F007033A689A4201D0E8
:10175C00012332E07B681B6803F00403002B08D0E4
:10176C00194B5B6823F4E0627B68DB681649134312
:10177C004B607B681B6803F00803002B09D0124BED
:10178C005B6823F460527B681B69DB000E491343D2
:10179C004B6000F021F802460B4B5B681B0903F011
:1017AC000F030A49CB5C22FA03F3094A1360094B75
:1017BC001B681846FFF7C0F9002318461037BD46C2
:1017CC0080BD00BF00200240001002403819000804
:1017DC00000000200400002080B487B000AF00237C
:1017EC00FB600023BB6000237B6100237B60002334
:1017FC003B611E4B5B68FB60FB6803F00C03042B26
:10180C0002D0082B03D027E0194B3B6127E0FB6883
:10181C009B0C03F00F03174AD35C7B60FB6803F44B
:10182C008033002B10D0114B5B685B0C03F0010371
:10183C00114AD35CBB607B680D4A02FB03F2BB68A8
:10184C00B2FBF3F37B6104E07B680C4A02FB03F30D
:10185C007B617B693B6102E0054B3B6100BF3B69EF
:10186C0018461C37BD4680BC704700BF00100240B4
:10187C0000127A00481900085819000800093D00A8
:10188C0080B485B000AF78600A4B1B680A4AA2FB93
:10189C0003235B0A7A6802FB03F3FB6000BFFB685F
:1018AC005A1EFA60002BF9D100BF00BF1437BD4699
:1018BC0080BC704700000020D34D621070B500262C
:1018CC000C4D0D4C641BA410A64209D100F022F85B
:1018DC0000260A4D0A4C641BA410A64205D170BD0B
:1018EC0055F8043B98470136EEE755F8043B98470A
:1018FC000136F2E75C1900085C1900085C19000855
:10190C006019000803460244934200D1704703F863
:10191C00011BF9E7F8B500BFF8BC08BC9E46704740
:0C192C00F8B500BFF8BC08BC9E46704730
:101938000000000000000000010203040607080977
:1019480002030405060708090A0B0C0D0E0F1010F8
:041958000102000088
:04195C00310100084D
:041960000D0100086D
:0C1964000024F40010000000010000004E
:0400000508000ACD18
:00000001FF
